{
  "_format": "hh-sol-artifact-1",
  "contractName": "MyNFT",
  "sourceName": "contracts/MyNFT.sol",
  "abi": [
    {
      "inputs": [
        {
          "internalType": "string",
          "name": "name",
          "type": "string"
        },
        {
          "internalType": "string",
          "name": "symbol",
          "type": "string"
        },
        {
          "internalType": "string",
          "name": "baseURI",
          "type": "string"
        },
        {
          "internalType": "uint256",
          "name": "maxSupply",
          "type": "uint256"
        }
      ],
      "stateMutability": "nonpayable",
      "type": "constructor"
    },
    {
      "anonymous": false,
      "inputs": [
        {
          "indexed": true,
          "internalType": "address",
          "name": "owner",
          "type": "address"
        },
        {
          "indexed": true,
          "internalType": "address",
          "name": "approved",
          "type": "address"
        },
        {
          "indexed": true,
          "internalType": "uint256",
          "name": "tokenId",
          "type": "uint256"
        }
      ],
      "name": "Approval",
      "type": "event"
    },
    {
      "anonymous": false,
      "inputs": [
        {
          "indexed": true,
          "internalType": "address",
          "name": "owner",
          "type": "address"
        },
        {
          "indexed": true,
          "internalType": "address",
          "name": "operator",
          "type": "address"
        },
        {
          "indexed": false,
          "internalType": "bool",
          "name": "approved",
          "type": "bool"
        }
      ],
      "name": "ApprovalForAll",
      "type": "event"
    },
    {
      "anonymous": false,
      "inputs": [
        {
          "indexed": true,
          "internalType": "address",
          "name": "previousOwner",
          "type": "address"
        },
        {
          "indexed": true,
          "internalType": "address",
          "name": "newOwner",
          "type": "address"
        }
      ],
      "name": "OwnershipTransferred",
      "type": "event"
    },
    {
      "anonymous": false,
      "inputs": [
        {
          "indexed": true,
          "internalType": "address",
          "name": "from",
          "type": "address"
        },
        {
          "indexed": true,
          "internalType": "address",
          "name": "to",
          "type": "address"
        },
        {
          "indexed": true,
          "internalType": "uint256",
          "name": "tokenId",
          "type": "uint256"
        }
      ],
      "name": "Transfer",
      "type": "event"
    },
    {
      "inputs": [],
      "name": "NFTPrice",
      "outputs": [
        {
          "internalType": "uint256",
          "name": "",
          "type": "uint256"
        }
      ],
      "stateMutability": "view",
      "type": "function"
    },
    {
      "inputs": [
        {
          "internalType": "address",
          "name": "to",
          "type": "address"
        },
        {
          "internalType": "uint256",
          "name": "tokenId",
          "type": "uint256"
        }
      ],
      "name": "approve",
      "outputs": [],
      "stateMutability": "nonpayable",
      "type": "function"
    },
    {
      "inputs": [
        {
          "internalType": "address",
          "name": "owner",
          "type": "address"
        }
      ],
      "name": "balanceOf",
      "outputs": [
        {
          "internalType": "uint256",
          "name": "",
          "type": "uint256"
        }
      ],
      "stateMutability": "view",
      "type": "function"
    },
    {
      "inputs": [
        {
          "internalType": "uint256",
          "name": "tokenId",
          "type": "uint256"
        }
      ],
      "name": "getApproved",
      "outputs": [
        {
          "internalType": "address",
          "name": "",
          "type": "address"
        }
      ],
      "stateMutability": "view",
      "type": "function"
    },
    {
      "inputs": [
        {
          "internalType": "address",
          "name": "owner",
          "type": "address"
        },
        {
          "internalType": "address",
          "name": "operator",
          "type": "address"
        }
      ],
      "name": "isApprovedForAll",
      "outputs": [
        {
          "internalType": "bool",
          "name": "",
          "type": "bool"
        }
      ],
      "stateMutability": "view",
      "type": "function"
    },
    {
      "inputs": [],
      "name": "maxNFTPerMint",
      "outputs": [
        {
          "internalType": "uint256",
          "name": "",
          "type": "uint256"
        }
      ],
      "stateMutability": "view",
      "type": "function"
    },
    {
      "inputs": [],
      "name": "maxNFTs",
      "outputs": [
        {
          "internalType": "uint256",
          "name": "",
          "type": "uint256"
        }
      ],
      "stateMutability": "view",
      "type": "function"
    },
    {
      "inputs": [
        {
          "internalType": "uint256",
          "name": "quantity",
          "type": "uint256"
        },
        {
          "internalType": "string[]",
          "name": "_tokenURIArray",
          "type": "string[]"
        }
      ],
      "name": "mintNFT",
      "outputs": [],
      "stateMutability": "payable",
      "type": "function"
    },
    {
      "inputs": [],
      "name": "mintingActive",
      "outputs": [
        {
          "internalType": "bool",
          "name": "",
          "type": "bool"
        }
      ],
      "stateMutability": "view",
      "type": "function"
    },
    {
      "inputs": [],
      "name": "name",
      "outputs": [
        {
          "internalType": "string",
          "name": "",
          "type": "string"
        }
      ],
      "stateMutability": "view",
      "type": "function"
    },
    {
      "inputs": [],
      "name": "owner",
      "outputs": [
        {
          "internalType": "address",
          "name": "",
          "type": "address"
        }
      ],
      "stateMutability": "view",
      "type": "function"
    },
    {
      "inputs": [
        {
          "internalType": "uint256",
          "name": "tokenId",
          "type": "uint256"
        }
      ],
      "name": "ownerOf",
      "outputs": [
        {
          "internalType": "address",
          "name": "",
          "type": "address"
        }
      ],
      "stateMutability": "view",
      "type": "function"
    },
    {
      "inputs": [],
      "name": "renounceOwnership",
      "outputs": [],
      "stateMutability": "nonpayable",
      "type": "function"
    },
    {
      "inputs": [
        {
          "internalType": "uint256",
          "name": "quantity",
          "type": "uint256"
        },
        {
          "internalType": "string[]",
          "name": "_tokenURIArray",
          "type": "string[]"
        }
      ],
      "name": "reserveNFTs",
      "outputs": [],
      "stateMutability": "nonpayable",
      "type": "function"
    },
    {
      "inputs": [
        {
          "internalType": "address",
          "name": "from",
          "type": "address"
        },
        {
          "internalType": "address",
          "name": "to",
          "type": "address"
        },
        {
          "internalType": "uint256",
          "name": "tokenId",
          "type": "uint256"
        }
      ],
      "name": "safeTransferFrom",
      "outputs": [],
      "stateMutability": "nonpayable",
      "type": "function"
    },
    {
      "inputs": [
        {
          "internalType": "address",
          "name": "from",
          "type": "address"
        },
        {
          "internalType": "address",
          "name": "to",
          "type": "address"
        },
        {
          "internalType": "uint256",
          "name": "tokenId",
          "type": "uint256"
        },
        {
          "internalType": "bytes",
          "name": "_data",
          "type": "bytes"
        }
      ],
      "name": "safeTransferFrom",
      "outputs": [],
      "stateMutability": "nonpayable",
      "type": "function"
    },
    {
      "inputs": [
        {
          "internalType": "address",
          "name": "operator",
          "type": "address"
        },
        {
          "internalType": "bool",
          "name": "approved",
          "type": "bool"
        }
      ],
      "name": "setApprovalForAll",
      "outputs": [],
      "stateMutability": "nonpayable",
      "type": "function"
    },
    {
      "inputs": [
        {
          "internalType": "string",
          "name": "baseURI",
          "type": "string"
        }
      ],
      "name": "setBaseURI",
      "outputs": [],
      "stateMutability": "nonpayable",
      "type": "function"
    },
    {
      "inputs": [
        {
          "internalType": "uint256",
          "name": "quantity",
          "type": "uint256"
        }
      ],
      "name": "setMaxQuantityPerMint",
      "outputs": [],
      "stateMutability": "nonpayable",
      "type": "function"
    },
    {
      "inputs": [
        {
          "internalType": "bytes4",
          "name": "interfaceId",
          "type": "bytes4"
        }
      ],
      "name": "supportsInterface",
      "outputs": [
        {
          "internalType": "bool",
          "name": "",
          "type": "bool"
        }
      ],
      "stateMutability": "view",
      "type": "function"
    },
    {
      "inputs": [],
      "name": "switchMinting",
      "outputs": [],
      "stateMutability": "nonpayable",
      "type": "function"
    },
    {
      "inputs": [],
      "name": "symbol",
      "outputs": [
        {
          "internalType": "string",
          "name": "",
          "type": "string"
        }
      ],
      "stateMutability": "view",
      "type": "function"
    },
    {
      "inputs": [
        {
          "internalType": "uint256",
          "name": "index",
          "type": "uint256"
        }
      ],
      "name": "tokenByIndex",
      "outputs": [
        {
          "internalType": "uint256",
          "name": "",
          "type": "uint256"
        }
      ],
      "stateMutability": "view",
      "type": "function"
    },
    {
      "inputs": [
        {
          "internalType": "address",
          "name": "owner",
          "type": "address"
        },
        {
          "internalType": "uint256",
          "name": "index",
          "type": "uint256"
        }
      ],
      "name": "tokenOfOwnerByIndex",
      "outputs": [
        {
          "internalType": "uint256",
          "name": "",
          "type": "uint256"
        }
      ],
      "stateMutability": "view",
      "type": "function"
    },
    {
      "inputs": [
        {
          "internalType": "uint256",
          "name": "tokenId",
          "type": "uint256"
        }
      ],
      "name": "tokenURI",
      "outputs": [
        {
          "internalType": "string",
          "name": "",
          "type": "string"
        }
      ],
      "stateMutability": "view",
      "type": "function"
    },
    {
      "inputs": [
        {
          "internalType": "address",
          "name": "_owner",
          "type": "address"
        }
      ],
      "name": "tokensOfOwner",
      "outputs": [
        {
          "internalType": "uint256[]",
          "name": "",
          "type": "uint256[]"
        }
      ],
      "stateMutability": "view",
      "type": "function"
    },
    {
      "inputs": [],
      "name": "totalSupply",
      "outputs": [
        {
          "internalType": "uint256",
          "name": "",
          "type": "uint256"
        }
      ],
      "stateMutability": "view",
      "type": "function"
    },
    {
      "inputs": [
        {
          "internalType": "address",
          "name": "from",
          "type": "address"
        },
        {
          "internalType": "address",
          "name": "to",
          "type": "address"
        },
        {
          "internalType": "uint256",
          "name": "tokenId",
          "type": "uint256"
        }
      ],
      "name": "transferFrom",
      "outputs": [],
      "stateMutability": "nonpayable",
      "type": "function"
    },
    {
      "inputs": [
        {
          "internalType": "address",
          "name": "newOwner",
          "type": "address"
        }
      ],
      "name": "transferOwnership",
      "outputs": [],
      "stateMutability": "nonpayable",
      "type": "function"
    },
    {
      "inputs": [],
      "name": "withdrawBalance",
      "outputs": [],
      "stateMutability": "nonpayable",
      "type": "function"
    }
  ],
  "bytecode": "0x608060405260405180602001604052806000815250600b90805190602001906200002b92919062000277565b506103e8600d55670de0b6b3a7640000600e55600a600f556000601060006101000a81548160ff0219169083151502179055503480156200006b57600080fd5b5060405162004cbe38038062004cbe8339818101604052810190620000919190620003b0565b83838160009080519060200190620000ab92919062000277565b508060019080519060200190620000c492919062000277565b5050506000620000d9620001ac60201b60201c565b905080600a60006101000a81548173ffffffffffffffffffffffffffffffffffffffff021916908373ffffffffffffffffffffffffffffffffffffffff1602179055508073ffffffffffffffffffffffffffffffffffffffff16600073ffffffffffffffffffffffffffffffffffffffff167f8be0079c531659141344cd1fd0a4f28419497f9722a3daafe3b4186f6b6457e060405160405180910390a35081600b90805190602001906200019092919062000277565b50620001a281620001b460201b60201c565b5050505062000631565b600033905090565b620001c4620001ac60201b60201c565b73ffffffffffffffffffffffffffffffffffffffff16620001ea6200024d60201b60201c565b73ffffffffffffffffffffffffffffffffffffffff161462000243576040517f08c379a00000000000000000000000000000000000000000000000000000000081526004016200023a90620004a9565b60405180910390fd5b80600d8190555050565b6000600a60009054906101000a900473ffffffffffffffffffffffffffffffffffffffff16905090565b828054620002859062000583565b90600052602060002090601f016020900481019282620002a95760008555620002f5565b82601f10620002c457805160ff1916838001178555620002f5565b82800160010185558215620002f5579182015b82811115620002f4578251825591602001919060010190620002d7565b5b50905062000304919062000308565b5090565b5b808211156200032357600081600090555060010162000309565b5090565b60006200033e6200033884620004ff565b620004cb565b9050828152602081018484840111156200035757600080fd5b620003648482856200054d565b509392505050565b600082601f8301126200037e57600080fd5b81516200039084826020860162000327565b91505092915050565b600081519050620003aa8162000617565b92915050565b60008060008060808587031215620003c757600080fd5b600085015167ffffffffffffffff811115620003e257600080fd5b620003f0878288016200036c565b945050602085015167ffffffffffffffff8111156200040e57600080fd5b6200041c878288016200036c565b935050604085015167ffffffffffffffff8111156200043a57600080fd5b62000448878288016200036c565b92505060606200045b8782880162000399565b91505092959194509250565b60006200047660208362000532565b91507f4f776e61626c653a2063616c6c6572206973206e6f7420746865206f776e65726000830152602082019050919050565b60006020820190508181036000830152620004c48162000467565b9050919050565b6000604051905081810181811067ffffffffffffffff82111715620004f557620004f4620005e8565b5b8060405250919050565b600067ffffffffffffffff8211156200051d576200051c620005e8565b5b601f19601f8301169050602081019050919050565b600082825260208201905092915050565b6000819050919050565b60005b838110156200056d57808201518184015260208101905062000550565b838111156200057d576000848401525b50505050565b600060028204905060018216806200059c57607f821691505b60208210811415620005b357620005b2620005b9565b5b50919050565b7f4e487b7100000000000000000000000000000000000000000000000000000000600052602260045260246000fd5b7f4e487b7100000000000000000000000000000000000000000000000000000000600052604160045260246000fd5b620006228162000543565b81146200062e57600080fd5b50565b61467d80620006416000396000f3fe6080604052600436106101cd5760003560e01c80635fd8c710116100f7578063a22cb46511610095578063e5140e0a11610064578063e5140e0a14610674578063e735930b14610690578063e985e9c5146106bb578063f2fde38b146106f8576101cd565b8063a22cb465146105ba578063a38bffda146105e3578063b88d4fde1461060e578063c87b56dd14610637576101cd565b8063715018a6116100d1578063715018a6146105105780638462151c146105275780638da5cb5b1461056457806395d89b411461058f576101cd565b80635fd8c7101461047f5780636352211e1461049657806370a08231146104d3576101cd565b8063290b2a0f1161016f57806342842e0e1161013e57806342842e0e146103c55780634e9e1ec6146103ee5780634f6ccce71461041957806355f804b314610456576101cd565b8063290b2a0f1461031d5780632f745c591461034657806331f9c919146103835780633b6ccee7146103ae576101cd565b8063095ea7b3116101ab578063095ea7b3146102775780630fa4230d146102a057806318160ddd146102c957806323b872dd146102f4576101cd565b806301ffc9a7146101d257806306fdde031461020f578063081812fc1461023a575b600080fd5b3480156101de57600080fd5b506101f960048036038101906101f491906131e4565b610721565b6040516102069190613deb565b60405180910390f35b34801561021b57600080fd5b5061022461079b565b6040516102319190613e06565b60405180910390f35b34801561024657600080fd5b50610261600480360381019061025c9190613277565b61082d565b60405161026e9190613d62565b60405180910390f35b34801561028357600080fd5b5061029e600480360381019061029991906131a8565b6108b2565b005b3480156102ac57600080fd5b506102c760048036038101906102c291906132a0565b6109ca565b005b3480156102d557600080fd5b506102de610ad5565b6040516102eb9190614148565b60405180910390f35b34801561030057600080fd5b5061031b600480360381019061031691906130a2565b610ae2565b005b34801561032957600080fd5b50610344600480360381019061033f9190613277565b610b42565b005b34801561035257600080fd5b5061036d600480360381019061036891906131a8565b610bc8565b60405161037a9190614148565b60405180910390f35b34801561038f57600080fd5b50610398610c6d565b6040516103a59190613deb565b60405180910390f35b3480156103ba57600080fd5b506103c3610c80565b005b3480156103d157600080fd5b506103ec60048036038101906103e791906130a2565b610d28565b005b3480156103fa57600080fd5b50610403610d48565b6040516104109190614148565b60405180910390f35b34801561042557600080fd5b50610440600480360381019061043b9190613277565b610d4e565b60405161044d9190614148565b60405180910390f35b34801561046257600080fd5b5061047d60048036038101906104789190613236565b610de5565b005b34801561048b57600080fd5b50610494610e7b565b005b3480156104a257600080fd5b506104bd60048036038101906104b89190613277565b610fac565b6040516104ca9190613d62565b60405180910390f35b3480156104df57600080fd5b506104fa60048036038101906104f5919061303d565b61105e565b6040516105079190614148565b60405180910390f35b34801561051c57600080fd5b50610525611116565b005b34801561053357600080fd5b5061054e6004803603810190610549919061303d565b611253565b60405161055b9190613dc9565b60405180910390f35b34801561057057600080fd5b506105796113cf565b6040516105869190613d62565b60405180910390f35b34801561059b57600080fd5b506105a46113f9565b6040516105b19190613e06565b60405180910390f35b3480156105c657600080fd5b506105e160048036038101906105dc919061316c565b61148b565b005b3480156105ef57600080fd5b506105f861160c565b6040516106059190614148565b60405180910390f35b34801561061a57600080fd5b50610635600480360381019061063091906130f1565b611612565b005b34801561064357600080fd5b5061065e60048036038101906106599190613277565b611674565b60405161066b9190613e06565b60405180910390f35b61068e600480360381019061068991906132a0565b6117e7565b005b34801561069c57600080fd5b506106a5611a09565b6040516106b29190614148565b60405180910390f35b3480156106c757600080fd5b506106e260048036038101906106dd9190613066565b611a0f565b6040516106ef9190613deb565b60405180910390f35b34801561070457600080fd5b5061071f600480360381019061071a919061303d565b611aa3565b005b60007f780e9d63000000000000000000000000000000000000000000000000000000007bffffffffffffffffffffffffffffffffffffffffffffffffffffffff1916827bffffffffffffffffffffffffffffffffffffffffffffffffffffffff19161480610794575061079382611c4f565b5b9050919050565b6060600080546107aa90614472565b80601f01602080910402602001604051908101604052809291908181526020018280546107d690614472565b80156108235780601f106107f857610100808354040283529160200191610823565b820191906000526020600020905b81548152906001019060200180831161080657829003601f168201915b5050505050905090565b600061083882611d31565b610877576040517f08c379a000000000000000000000000000000000000000000000000000000000815260040161086e90613fc8565b60405180910390fd5b6004600083815260200190815260200160002060009054906101000a900473ffffffffffffffffffffffffffffffffffffffff169050919050565b60006108bd82610fac565b90508073ffffffffffffffffffffffffffffffffffffffff168373ffffffffffffffffffffffffffffffffffffffff16141561092e576040517f08c379a000000000000000000000000000000000000000000000000000000000815260040161092590614088565b60405180910390fd5b8073ffffffffffffffffffffffffffffffffffffffff1661094d611d9d565b73ffffffffffffffffffffffffffffffffffffffff16148061097c575061097b81610976611d9d565b611a0f565b5b6109bb576040517f08c379a00000000000000000000000000000000000000000000000000000000081526004016109b290613f28565b60405180910390fd5b6109c58383611da5565b505050565b6109d2611d9d565b73ffffffffffffffffffffffffffffffffffffffff166109f06113cf565b73ffffffffffffffffffffffffffffffffffffffff1614610a46576040517f08c379a0000000000000000000000000000000000000000000000000000000008152600401610a3d90614008565b60405180910390fd5b60005b82811015610ad0576000610a5b610ad5565b9050600d54811015610abc57610a713382611e5e565b610abb81848481518110610aae577f4e487b7100000000000000000000000000000000000000000000000000000000600052603260045260246000fd5b6020026020010151611e7c565b5b508080610ac8906144a4565b915050610a49565b505050565b6000600880549050905090565b610af3610aed611d9d565b82611ef0565b610b32576040517f08c379a0000000000000000000000000000000000000000000000000000000008152600401610b29906140c8565b60405180910390fd5b610b3d838383611fce565b505050565b610b4a611d9d565b73ffffffffffffffffffffffffffffffffffffffff16610b686113cf565b73ffffffffffffffffffffffffffffffffffffffff1614610bbe576040517f08c379a0000000000000000000000000000000000000000000000000000000008152600401610bb590614008565b60405180910390fd5b80600f8190555050565b6000610bd38361105e565b8210610c14576040517f08c379a0000000000000000000000000000000000000000000000000000000008152600401610c0b90613e28565b60405180910390fd5b600660008473ffffffffffffffffffffffffffffffffffffffff1673ffffffffffffffffffffffffffffffffffffffff168152602001908152602001600020600083815260200190815260200160002054905092915050565b601060009054906101000a900460ff1681565b610c88611d9d565b73ffffffffffffffffffffffffffffffffffffffff16610ca66113cf565b73ffffffffffffffffffffffffffffffffffffffff1614610cfc576040517f08c379a0000000000000000000000000000000000000000000000000000000008152600401610cf390614008565b60405180910390fd5b601060009054906101000a900460ff1615601060006101000a81548160ff021916908315150217905550565b610d4383838360405180602001604052806000815250611612565b505050565b600d5481565b6000610d58610ad5565b8210610d99576040517f08c379a0000000000000000000000000000000000000000000000000000000008152600401610d9090614128565b60405180910390fd5b60088281548110610dd3577f4e487b7100000000000000000000000000000000000000000000000000000000600052603260045260246000fd5b90600052602060002001549050919050565b610ded611d9d565b73ffffffffffffffffffffffffffffffffffffffff16610e0b6113cf565b73ffffffffffffffffffffffffffffffffffffffff1614610e61576040517f08c379a0000000000000000000000000000000000000000000000000000000008152600401610e5890614008565b60405180910390fd5b80600b9080519060200190610e77929190612dda565b5050565b610e83611d9d565b73ffffffffffffffffffffffffffffffffffffffff16610ea16113cf565b73ffffffffffffffffffffffffffffffffffffffff1614610ef7576040517f08c379a0000000000000000000000000000000000000000000000000000000008152600401610eee90614008565b60405180910390fd5b600047905060003373ffffffffffffffffffffffffffffffffffffffff1682604051610f2290613d4d565b60006040518083038185875af1925050503d8060008114610f5f576040519150601f19603f3d011682016040523d82523d6000602084013e610f64565b606091505b5050905080610fa8576040517f08c379a0000000000000000000000000000000000000000000000000000000008152600401610f9f906140a8565b60405180910390fd5b5050565b6000806002600084815260200190815260200160002060009054906101000a900473ffffffffffffffffffffffffffffffffffffffff169050600073ffffffffffffffffffffffffffffffffffffffff168173ffffffffffffffffffffffffffffffffffffffff161415611055576040517f08c379a000000000000000000000000000000000000000000000000000000000815260040161104c90613f68565b60405180910390fd5b80915050919050565b60008073ffffffffffffffffffffffffffffffffffffffff168273ffffffffffffffffffffffffffffffffffffffff1614156110cf576040517f08c379a00000000000000000000000000000000000000000000000000000000081526004016110c690613f48565b60405180910390fd5b600360008373ffffffffffffffffffffffffffffffffffffffff1673ffffffffffffffffffffffffffffffffffffffff168152602001908152602001600020549050919050565b61111e611d9d565b73ffffffffffffffffffffffffffffffffffffffff1661113c6113cf565b73ffffffffffffffffffffffffffffffffffffffff1614611192576040517f08c379a000000000000000000000000000000000000000000000000000000000815260040161118990614008565b60405180910390fd5b600073ffffffffffffffffffffffffffffffffffffffff16600a60009054906101000a900473ffffffffffffffffffffffffffffffffffffffff1673ffffffffffffffffffffffffffffffffffffffff167f8be0079c531659141344cd1fd0a4f28419497f9722a3daafe3b4186f6b6457e060405160405180910390a36000600a60006101000a81548173ffffffffffffffffffffffffffffffffffffffff021916908373ffffffffffffffffffffffffffffffffffffffff160217905550565b606060006112608361105e565b905060008114156112e357600067ffffffffffffffff8111156112ac577f4e487b7100000000000000000000000000000000000000000000000000000000600052604160045260246000fd5b6040519080825280602002602001820160405280156112da5781602001602082028036833780820191505090505b509150506113ca565b60008167ffffffffffffffff811115611325577f4e487b7100000000000000000000000000000000000000000000000000000000600052604160045260246000fd5b6040519080825280602002602001820160405280156113535781602001602082028036833780820191505090505b50905060005b828110156113c35761136b8582610bc8565b8282815181106113a4577f4e487b7100000000000000000000000000000000000000000000000000000000600052603260045260246000fd5b60200260200101818152505080806113bb906144a4565b915050611359565b5080925050505b919050565b6000600a60009054906101000a900473ffffffffffffffffffffffffffffffffffffffff16905090565b60606001805461140890614472565b80601f016020809104026020016040519081016040528092919081815260200182805461143490614472565b80156114815780601f1061145657610100808354040283529160200191611481565b820191906000526020600020905b81548152906001019060200180831161146457829003601f168201915b5050505050905090565b611493611d9d565b73ffffffffffffffffffffffffffffffffffffffff168273ffffffffffffffffffffffffffffffffffffffff161415611501576040517f08c379a00000000000000000000000000000000000000000000000000000000081526004016114f890613ec8565b60405180910390fd5b806005600061150e611d9d565b73ffffffffffffffffffffffffffffffffffffffff1673ffffffffffffffffffffffffffffffffffffffff16815260200190815260200160002060008473ffffffffffffffffffffffffffffffffffffffff1673ffffffffffffffffffffffffffffffffffffffff16815260200190815260200160002060006101000a81548160ff0219169083151502179055508173ffffffffffffffffffffffffffffffffffffffff166115bb611d9d565b73ffffffffffffffffffffffffffffffffffffffff167f17307eab39ab6107e8899845ad3d59bd9653f200f220920489ca2b5937696c31836040516116009190613deb565b60405180910390a35050565b600e5481565b61162361161d611d9d565b83611ef0565b611662576040517f08c379a0000000000000000000000000000000000000000000000000000000008152600401611659906140c8565b60405180910390fd5b61166e8484848461222c565b50505050565b606061167f82611d31565b6116be576040517f08c379a00000000000000000000000000000000000000000000000000000000081526004016116b590614048565b60405180910390fd5b6000600c600084815260200190815260200160002080546116de90614472565b80601f016020809104026020016040519081016040528092919081815260200182805461170a90614472565b80156117575780601f1061172c57610100808354040283529160200191611757565b820191906000526020600020905b81548152906001019060200180831161173a57829003601f168201915b505050505090506000611768612288565b905060008151141561177e5781925050506117e2565b6000825111156117b357808260405160200161179b929190613d29565b604051602081830303815290604052925050506117e2565b806117bd8561231a565b6040516020016117ce929190613d29565b604051602081830303815290604052925050505b919050565b601060009054906101000a900460ff16611836576040517f08c379a000000000000000000000000000000000000000000000000000000000815260040161182d906140e8565b60405180910390fd5b60008211611879576040517f08c379a000000000000000000000000000000000000000000000000000000000815260040161187090613ee8565b60405180910390fd5b600d5461189683611888610ad5565b6124c790919063ffffffff16565b11156118d7576040517f08c379a00000000000000000000000000000000000000000000000000000000081526004016118ce90614108565b60405180910390fd5b600f5482111561191c576040517f08c379a000000000000000000000000000000000000000000000000000000000815260040161191390614068565b60405180910390fd5b3461193283600e546124dd90919063ffffffff16565b1115611973576040517f08c379a000000000000000000000000000000000000000000000000000000000815260040161196a90613fa8565b60405180910390fd5b60005b82811015611a04576000611988610ad5565b9050600d54611995610ad5565b10156119f0576119a53382611e5e565b6119ef818484815181106119e2577f4e487b7100000000000000000000000000000000000000000000000000000000600052603260045260246000fd5b6020026020010151611e7c565b5b5080806119fc906144a4565b915050611976565b505050565b600f5481565b6000600560008473ffffffffffffffffffffffffffffffffffffffff1673ffffffffffffffffffffffffffffffffffffffff16815260200190815260200160002060008373ffffffffffffffffffffffffffffffffffffffff1673ffffffffffffffffffffffffffffffffffffffff16815260200190815260200160002060009054906101000a900460ff16905092915050565b611aab611d9d565b73ffffffffffffffffffffffffffffffffffffffff16611ac96113cf565b73ffffffffffffffffffffffffffffffffffffffff1614611b1f576040517f08c379a0000000000000000000000000000000000000000000000000000000008152600401611b1690614008565b60405180910390fd5b600073ffffffffffffffffffffffffffffffffffffffff168173ffffffffffffffffffffffffffffffffffffffff161415611b8f576040517f08c379a0000000000000000000000000000000000000000000000000000000008152600401611b8690613e68565b60405180910390fd5b8073ffffffffffffffffffffffffffffffffffffffff16600a60009054906101000a900473ffffffffffffffffffffffffffffffffffffffff1673ffffffffffffffffffffffffffffffffffffffff167f8be0079c531659141344cd1fd0a4f28419497f9722a3daafe3b4186f6b6457e060405160405180910390a380600a60006101000a81548173ffffffffffffffffffffffffffffffffffffffff021916908373ffffffffffffffffffffffffffffffffffffffff16021790555050565b60007f80ac58cd000000000000000000000000000000000000000000000000000000007bffffffffffffffffffffffffffffffffffffffffffffffffffffffff1916827bffffffffffffffffffffffffffffffffffffffffffffffffffffffff19161480611d1a57507f5b5e139f000000000000000000000000000000000000000000000000000000007bffffffffffffffffffffffffffffffffffffffffffffffffffffffff1916827bffffffffffffffffffffffffffffffffffffffffffffffffffffffff1916145b80611d2a5750611d29826124f3565b5b9050919050565b60008073ffffffffffffffffffffffffffffffffffffffff166002600084815260200190815260200160002060009054906101000a900473ffffffffffffffffffffffffffffffffffffffff1673ffffffffffffffffffffffffffffffffffffffff1614159050919050565b600033905090565b816004600083815260200190815260200160002060006101000a81548173ffffffffffffffffffffffffffffffffffffffff021916908373ffffffffffffffffffffffffffffffffffffffff160217905550808273ffffffffffffffffffffffffffffffffffffffff16611e1883610fac565b73ffffffffffffffffffffffffffffffffffffffff167f8c5be1e5ebec7d5bd14f71427d1e84f3dd0314c0f7b2291e5b200ac8c7c3b92560405160405180910390a45050565b611e7882826040518060200160405280600081525061255d565b5050565b611e8582611d31565b611ec4576040517f08c379a0000000000000000000000000000000000000000000000000000000008152600401611ebb90613fe8565b60405180910390fd5b80600c60008481526020019081526020016000209080519060200190611eeb929190612dda565b505050565b6000611efb82611d31565b611f3a576040517f08c379a0000000000000000000000000000000000000000000000000000000008152600401611f3190613f08565b60405180910390fd5b6000611f4583610fac565b90508073ffffffffffffffffffffffffffffffffffffffff168473ffffffffffffffffffffffffffffffffffffffff161480611fb457508373ffffffffffffffffffffffffffffffffffffffff16611f9c8461082d565b73ffffffffffffffffffffffffffffffffffffffff16145b80611fc55750611fc48185611a0f565b5b91505092915050565b8273ffffffffffffffffffffffffffffffffffffffff16611fee82610fac565b73ffffffffffffffffffffffffffffffffffffffff1614612044576040517f08c379a000000000000000000000000000000000000000000000000000000000815260040161203b90614028565b60405180910390fd5b600073ffffffffffffffffffffffffffffffffffffffff168273ffffffffffffffffffffffffffffffffffffffff1614156120b4576040517f08c379a00000000000000000000000000000000000000000000000000000000081526004016120ab90613ea8565b60405180910390fd5b6120c183838360016125b8565b6120cc600082611da5565b6001600360008573ffffffffffffffffffffffffffffffffffffffff1673ffffffffffffffffffffffffffffffffffffffff168152602001908152602001600020600082825461211c9190614388565b925050819055506001600360008473ffffffffffffffffffffffffffffffffffffffff1673ffffffffffffffffffffffffffffffffffffffff168152602001908152602001600020600082825461217391906142a7565b92505081905550816002600083815260200190815260200160002060006101000a81548173ffffffffffffffffffffffffffffffffffffffff021916908373ffffffffffffffffffffffffffffffffffffffff160217905550808273ffffffffffffffffffffffffffffffffffffffff168473ffffffffffffffffffffffffffffffffffffffff167fddf252ad1be2c89b69c2b068fc378daa952ba7f163c4a11628f55a4df523b3ef60405160405180910390a4505050565b612237848484611fce565b612243848484846126e2565b612282576040517f08c379a000000000000000000000000000000000000000000000000000000000815260040161227990613e48565b60405180910390fd5b50505050565b6060600b805461229790614472565b80601f01602080910402602001604051908101604052809291908181526020018280546122c390614472565b80156123105780601f106122e557610100808354040283529160200191612310565b820191906000526020600020905b8154815290600101906020018083116122f357829003601f168201915b5050505050905090565b60606000821415612362576040518060400160405280600181526020017f300000000000000000000000000000000000000000000000000000000000000081525090506124c2565b600082905060005b6000821461239457808061237d906144a4565b915050600a8261238d91906142fd565b915061236a565b60008167ffffffffffffffff8111156123d6577f4e487b7100000000000000000000000000000000000000000000000000000000600052604160045260246000fd5b6040519080825280601f01601f1916602001820160405280156124085781602001600182028036833780820191505090505b5090505b600085146124bb576001826124219190614388565b9150600a8561243091906144ed565b603061243c91906142a7565b60f81b818381518110612478577f4e487b7100000000000000000000000000000000000000000000000000000000600052603260045260246000fd5b60200101907effffffffffffffffffffffffffffffffffffffffffffffffffffffffffffff1916908160001a905350600a856124b491906142fd565b945061240c565b8093505050505b919050565b600081836124d591906142a7565b905092915050565b600081836124eb919061432e565b905092915050565b60007f01ffc9a7000000000000000000000000000000000000000000000000000000007bffffffffffffffffffffffffffffffffffffffffffffffffffffffff1916827bffffffffffffffffffffffffffffffffffffffffffffffffffffffff1916149050919050565b6125678383612879565b61257460008484846126e2565b6125b3576040517f08c379a00000000000000000000000000000000000000000000000000000000081526004016125aa90613e48565b60405180910390fd5b505050565b6125c484848484612a49565b600073ffffffffffffffffffffffffffffffffffffffff168473ffffffffffffffffffffffffffffffffffffffff1614156126075761260282612a4f565b612646565b8273ffffffffffffffffffffffffffffffffffffffff168473ffffffffffffffffffffffffffffffffffffffff1614612645576126448483612a98565b5b5b600073ffffffffffffffffffffffffffffffffffffffff168373ffffffffffffffffffffffffffffffffffffffff1614801561267f5750805b156126925761268d82612c05565b6126dc565b8373ffffffffffffffffffffffffffffffffffffffff168373ffffffffffffffffffffffffffffffffffffffff16141580156126cb5750805b156126db576126da8383612d48565b5b5b50505050565b60006127038473ffffffffffffffffffffffffffffffffffffffff16612dc7565b1561286c578373ffffffffffffffffffffffffffffffffffffffff1663150b7a0261272c611d9d565b8786866040518563ffffffff1660e01b815260040161274e9493929190613d7d565b602060405180830381600087803b15801561276857600080fd5b505af192505050801561279957506040513d601f19601f82011682018060405250810190612796919061320d565b60015b61281c573d80600081146127c9576040519150601f19603f3d011682016040523d82523d6000602084013e6127ce565b606091505b50600081511415612814576040517f08c379a000000000000000000000000000000000000000000000000000000000815260040161280b90613e48565b60405180910390fd5b805181602001fd5b63150b7a0260e01b7bffffffffffffffffffffffffffffffffffffffffffffffffffffffff1916817bffffffffffffffffffffffffffffffffffffffffffffffffffffffff191614915050612871565b600190505b949350505050565b600073ffffffffffffffffffffffffffffffffffffffff168273ffffffffffffffffffffffffffffffffffffffff1614156128e9576040517f08c379a00000000000000000000000000000000000000000000000000000000081526004016128e090613f88565b60405180910390fd5b6128f281611d31565b15612932576040517f08c379a000000000000000000000000000000000000000000000000000000000815260040161292990613e88565b60405180910390fd5b6129406000838360016125b8565b6001600360008473ffffffffffffffffffffffffffffffffffffffff1673ffffffffffffffffffffffffffffffffffffffff168152602001908152602001600020600082825461299091906142a7565b92505081905550816002600083815260200190815260200160002060006101000a81548173ffffffffffffffffffffffffffffffffffffffff021916908373ffffffffffffffffffffffffffffffffffffffff160217905550808273ffffffffffffffffffffffffffffffffffffffff16600073ffffffffffffffffffffffffffffffffffffffff167fddf252ad1be2c89b69c2b068fc378daa952ba7f163c4a11628f55a4df523b3ef60405160405180910390a45050565b50505050565b6008805490506009600083815260200190815260200160002081905550600881908060018154018082558091505060019003906000526020600020016000909190919091505550565b60006001612aa58461105e565b612aaf9190614388565b9050600060076000848152602001908152602001600020549050818114612b94576000600660008673ffffffffffffffffffffffffffffffffffffffff1673ffffffffffffffffffffffffffffffffffffffff168152602001908152602001600020600084815260200190815260200160002054905080600660008773ffffffffffffffffffffffffffffffffffffffff1673ffffffffffffffffffffffffffffffffffffffff168152602001908152602001600020600084815260200190815260200160002081905550816007600083815260200190815260200160002081905550505b6007600084815260200190815260200160002060009055600660008573ffffffffffffffffffffffffffffffffffffffff1673ffffffffffffffffffffffffffffffffffffffff16815260200190815260200160002060008381526020019081526020016000206000905550505050565b60006001600880549050612c199190614388565b9050600060096000848152602001908152602001600020549050600060088381548110612c6f577f4e487b7100000000000000000000000000000000000000000000000000000000600052603260045260246000fd5b906000526020600020015490508060088381548110612cb7577f4e487b7100000000000000000000000000000000000000000000000000000000600052603260045260246000fd5b906000526020600020018190555081600960008381526020019081526020016000208190555060096000858152602001908152602001600020600090556008805480612d2c577f4e487b7100000000000000000000000000000000000000000000000000000000600052603160045260246000fd5b6001900381819060005260206000200160009055905550505050565b6000612d538361105e565b905081600660008573ffffffffffffffffffffffffffffffffffffffff1673ffffffffffffffffffffffffffffffffffffffff168152602001908152602001600020600083815260200190815260200160002081905550806007600084815260200190815260200160002081905550505050565b600080823b905060008111915050919050565b828054612de690614472565b90600052602060002090601f016020900481019282612e085760008555612e4f565b82601f10612e2157805160ff1916838001178555612e4f565b82800160010185558215612e4f579182015b82811115612e4e578251825591602001919060010190612e33565b5b509050612e5c9190612e60565b5090565b5b80821115612e79576000816000905550600101612e61565b5090565b6000612e90612e8b84614194565b614163565b9050808382526020820190508260005b85811015612ed05781358501612eb68882612ffe565b845260208401935060208301925050600181019050612ea0565b5050509392505050565b6000612eed612ee8846141c0565b614163565b905082815260208101848484011115612f0557600080fd5b612f10848285614430565b509392505050565b6000612f2b612f26846141f0565b614163565b905082815260208101848484011115612f4357600080fd5b612f4e848285614430565b509392505050565b600081359050612f65816145eb565b92915050565b600082601f830112612f7c57600080fd5b8135612f8c848260208601612e7d565b91505092915050565b600081359050612fa481614602565b92915050565b600081359050612fb981614619565b92915050565b600081519050612fce81614619565b92915050565b600082601f830112612fe557600080fd5b8135612ff5848260208601612eda565b91505092915050565b600082601f83011261300f57600080fd5b813561301f848260208601612f18565b91505092915050565b60008135905061303781614630565b92915050565b60006020828403121561304f57600080fd5b600061305d84828501612f56565b91505092915050565b6000806040838503121561307957600080fd5b600061308785828601612f56565b925050602061309885828601612f56565b9150509250929050565b6000806000606084860312156130b757600080fd5b60006130c586828701612f56565b93505060206130d686828701612f56565b92505060406130e786828701613028565b9150509250925092565b6000806000806080858703121561310757600080fd5b600061311587828801612f56565b945050602061312687828801612f56565b935050604061313787828801613028565b925050606085013567ffffffffffffffff81111561315457600080fd5b61316087828801612fd4565b91505092959194509250565b6000806040838503121561317f57600080fd5b600061318d85828601612f56565b925050602061319e85828601612f95565b9150509250929050565b600080604083850312156131bb57600080fd5b60006131c985828601612f56565b92505060206131da85828601613028565b9150509250929050565b6000602082840312156131f657600080fd5b600061320484828501612faa565b91505092915050565b60006020828403121561321f57600080fd5b600061322d84828501612fbf565b91505092915050565b60006020828403121561324857600080fd5b600082013567ffffffffffffffff81111561326257600080fd5b61326e84828501612ffe565b91505092915050565b60006020828403121561328957600080fd5b600061329784828501613028565b91505092915050565b600080604083850312156132b357600080fd5b60006132c185828601613028565b925050602083013567ffffffffffffffff8111156132de57600080fd5b6132ea85828601612f6b565b9150509250929050565b60006133008383613d0b565b60208301905092915050565b613315816143bc565b82525050565b600061332682614230565b613330818561425e565b935061333b83614220565b8060005b8381101561336c57815161335388826132f4565b975061335e83614251565b92505060018101905061333f565b5085935050505092915050565b613382816143ce565b82525050565b60006133938261423b565b61339d818561426f565b93506133ad81856020860161443f565b6133b6816145da565b840191505092915050565b60006133cc82614246565b6133d6818561428b565b93506133e681856020860161443f565b6133ef816145da565b840191505092915050565b600061340582614246565b61340f818561429c565b935061341f81856020860161443f565b80840191505092915050565b6000613438602b8361428b565b91507f455243373231456e756d657261626c653a206f776e657220696e646578206f7560008301527f74206f6620626f756e64730000000000000000000000000000000000000000006020830152604082019050919050565b600061349e60328361428b565b91507f4552433732313a207472616e7366657220746f206e6f6e20455243373231526560008301527f63656976657220696d706c656d656e74657200000000000000000000000000006020830152604082019050919050565b600061350460268361428b565b91507f4f776e61626c653a206e6577206f776e657220697320746865207a65726f206160008301527f64647265737300000000000000000000000000000000000000000000000000006020830152604082019050919050565b600061356a601c8361428b565b91507f4552433732313a20746f6b656e20616c7265616479206d696e746564000000006000830152602082019050919050565b60006135aa60248361428b565b91507f4552433732313a207472616e7366657220746f20746865207a65726f2061646460008301527f72657373000000000000000000000000000000000000000000000000000000006020830152604082019050919050565b600061361060198361428b565b91507f4552433732313a20617070726f766520746f2063616c6c6572000000000000006000830152602082019050919050565b600061365060278361428b565b91507f5768792061726520796f75206d696e74696e67206c657373207468616e207a6560008301527f726f206e667473000000000000000000000000000000000000000000000000006020830152604082019050919050565b60006136b6602c8361428b565b91507f4552433732313a206f70657261746f7220717565727920666f72206e6f6e657860008301527f697374656e7420746f6b656e00000000000000000000000000000000000000006020830152604082019050919050565b600061371c60388361428b565b91507f4552433732313a20617070726f76652063616c6c6572206973206e6f74206f7760008301527f6e6572206e6f7220617070726f76656420666f7220616c6c00000000000000006020830152604082019050919050565b6000613782602a8361428b565b91507f4552433732313a2062616c616e636520717565727920666f7220746865207a6560008301527f726f2061646472657373000000000000000000000000000000000000000000006020830152604082019050919050565b60006137e860298361428b565b91507f4552433732313a206f776e657220717565727920666f72206e6f6e657869737460008301527f656e7420746f6b656e00000000000000000000000000000000000000000000006020830152604082019050919050565b600061384e60208361428b565b91507f4552433732313a206d696e7420746f20746865207a65726f20616464726573736000830152602082019050919050565b600061388e60208361428b565b91507f457468657265756d2073656e74206973206e6f742073756666696369656e742e6000830152602082019050919050565b60006138ce602c8361428b565b91507f4552433732313a20617070726f76656420717565727920666f72206e6f6e657860008301527f697374656e7420746f6b656e00000000000000000000000000000000000000006020830152604082019050919050565b6000613934602c8361428b565b91507f4552433732314d657461646174613a2055524920736574206f66206e6f6e657860008301527f697374656e7420746f6b656e00000000000000000000000000000000000000006020830152604082019050919050565b600061399a60208361428b565b91507f4f776e61626c653a2063616c6c6572206973206e6f7420746865206f776e65726000830152602082019050919050565b60006139da60298361428b565b91507f4552433732313a207472616e73666572206f6620746f6b656e2074686174206960008301527f73206e6f74206f776e00000000000000000000000000000000000000000000006020830152604082019050919050565b6000613a40602f8361428b565b91507f4552433732314d657461646174613a2055524920717565727920666f72206e6f60008301527f6e6578697374656e7420746f6b656e00000000000000000000000000000000006020830152604082019050919050565b6000613aa6602b8361428b565b91507f43616e6e6f74206d696e742074686973206e756d626572206f66204e4654732060008301527f696e206f6e6520676f20210000000000000000000000000000000000000000006020830152604082019050919050565b6000613b0c60218361428b565b91507f4552433732313a20617070726f76616c20746f2063757272656e74206f776e6560008301527f72000000000000000000000000000000000000000000000000000000000000006020830152604082019050919050565b6000613b72600083614280565b9150600082019050919050565b6000613b8c60108361428b565b91507f5472616e73666572206661696c65642e000000000000000000000000000000006000830152602082019050919050565b6000613bcc60318361428b565b91507f4552433732313a207472616e736665722063616c6c6572206973206e6f74206f60008301527f776e6572206e6f7220617070726f7665640000000000000000000000000000006020830152604082019050919050565b6000613c32601d8361428b565b91507f4d696e74696e67206973206e6f7420616374697661746564207965742e0000006000830152602082019050919050565b6000613c72601d8361428b565b91507f4f6e6c7920312c303030204e4654732061726520617661696c61626c650000006000830152602082019050919050565b6000613cb2602c8361428b565b91507f455243373231456e756d657261626c653a20676c6f62616c20696e646578206f60008301527f7574206f6620626f756e647300000000000000000000000000000000000000006020830152604082019050919050565b613d1481614426565b82525050565b613d2381614426565b82525050565b6000613d3582856133fa565b9150613d4182846133fa565b91508190509392505050565b6000613d5882613b65565b9150819050919050565b6000602082019050613d77600083018461330c565b92915050565b6000608082019050613d92600083018761330c565b613d9f602083018661330c565b613dac6040830185613d1a565b8181036060830152613dbe8184613388565b905095945050505050565b60006020820190508181036000830152613de3818461331b565b905092915050565b6000602082019050613e006000830184613379565b92915050565b60006020820190508181036000830152613e2081846133c1565b905092915050565b60006020820190508181036000830152613e418161342b565b9050919050565b60006020820190508181036000830152613e6181613491565b9050919050565b60006020820190508181036000830152613e81816134f7565b9050919050565b60006020820190508181036000830152613ea18161355d565b9050919050565b60006020820190508181036000830152613ec18161359d565b9050919050565b60006020820190508181036000830152613ee181613603565b9050919050565b60006020820190508181036000830152613f0181613643565b9050919050565b60006020820190508181036000830152613f21816136a9565b9050919050565b60006020820190508181036000830152613f418161370f565b9050919050565b60006020820190508181036000830152613f6181613775565b9050919050565b60006020820190508181036000830152613f81816137db565b9050919050565b60006020820190508181036000830152613fa181613841565b9050919050565b60006020820190508181036000830152613fc181613881565b9050919050565b60006020820190508181036000830152613fe1816138c1565b9050919050565b6000602082019050818103600083015261400181613927565b9050919050565b600060208201905081810360008301526140218161398d565b9050919050565b60006020820190508181036000830152614041816139cd565b9050919050565b6000602082019050818103600083015261406181613a33565b9050919050565b6000602082019050818103600083015261408181613a99565b9050919050565b600060208201905081810360008301526140a181613aff565b9050919050565b600060208201905081810360008301526140c181613b7f565b9050919050565b600060208201905081810360008301526140e181613bbf565b9050919050565b6000602082019050818103600083015261410181613c25565b9050919050565b6000602082019050818103600083015261412181613c65565b9050919050565b6000602082019050818103600083015261414181613ca5565b9050919050565b600060208201905061415d6000830184613d1a565b92915050565b6000604051905081810181811067ffffffffffffffff8211171561418a576141896145ab565b5b8060405250919050565b600067ffffffffffffffff8211156141af576141ae6145ab565b5b602082029050602081019050919050565b600067ffffffffffffffff8211156141db576141da6145ab565b5b601f19601f8301169050602081019050919050565b600067ffffffffffffffff82111561420b5761420a6145ab565b5b601f19601f8301169050602081019050919050565b6000819050602082019050919050565b600081519050919050565b600081519050919050565b600081519050919050565b6000602082019050919050565b600082825260208201905092915050565b600082825260208201905092915050565b600081905092915050565b600082825260208201905092915050565b600081905092915050565b60006142b282614426565b91506142bd83614426565b9250827fffffffffffffffffffffffffffffffffffffffffffffffffffffffffffffffff038211156142f2576142f161451e565b5b828201905092915050565b600061430882614426565b915061431383614426565b9250826143235761432261454d565b5b828204905092915050565b600061433982614426565b915061434483614426565b9250817fffffffffffffffffffffffffffffffffffffffffffffffffffffffffffffffff048311821515161561437d5761437c61451e565b5b828202905092915050565b600061439382614426565b915061439e83614426565b9250828210156143b1576143b061451e565b5b828203905092915050565b60006143c782614406565b9050919050565b60008115159050919050565b60007fffffffff0000000000000000000000000000000000000000000000000000000082169050919050565b600073ffffffffffffffffffffffffffffffffffffffff82169050919050565b6000819050919050565b82818337600083830152505050565b60005b8381101561445d578082015181840152602081019050614442565b8381111561446c576000848401525b50505050565b6000600282049050600182168061448a57607f821691505b6020821081141561449e5761449d61457c565b5b50919050565b60006144af82614426565b91507fffffffffffffffffffffffffffffffffffffffffffffffffffffffffffffffff8214156144e2576144e161451e565b5b600182019050919050565b60006144f882614426565b915061450383614426565b9250826145135761451261454d565b5b828206905092915050565b7f4e487b7100000000000000000000000000000000000000000000000000000000600052601160045260246000fd5b7f4e487b7100000000000000000000000000000000000000000000000000000000600052601260045260246000fd5b7f4e487b7100000000000000000000000000000000000000000000000000000000600052602260045260246000fd5b7f4e487b7100000000000000000000000000000000000000000000000000000000600052604160045260246000fd5b6000601f19601f8301169050919050565b6145f4816143bc565b81146145ff57600080fd5b50565b61460b816143ce565b811461461657600080fd5b50565b614622816143da565b811461462d57600080fd5b50565b61463981614426565b811461464457600080fd5b5056fea264697066735822122034f7aa3157c40b1dd3b0b9399b94454802e315d7adb764b620f789eb899562d064736f6c63430008000033",
  "linkReferences": {},
  "deployedLinkReferences": {}
}